{
  "transactions": [
    {
      "hash": "0xd7feb206dc54ee95113027d4cb4e9f9f91108f133c5aee66f71cc6a44ffc9124",
      "transactionType": "CALL",
      "contractName": null,
      "contractAddress": "0x779877a7b0d9e8603169ddbd7836e478b4624789",
      "function": "transferAndCall(address,uint256,bytes)",
      "arguments": [
        "0x9DdfaCa8183c41ad55329BdeeD9F6A8d53168B1B",
        "3000000000000000000",
        "0x0176ce2c8adb709c81222a360e4e9b63596e44e30cd8c63b2af55bf70842c296"
      ],
      "transaction": {
        "from": "0x97c1056664b196641f821fda9049ab8c653dc5c5",
        "to": "0x779877a7b0d9e8603169ddbd7836e478b4624789",
        "gas": "0x14cbb",
        "value": "0x0",
        "input": "0x4000aea00000000000000000000000009ddfaca8183c41ad55329bdeed9f6a8d53168b1b00000000000000000000000000000000000000000000000029a2241af62c0000000000000000000000000000000000000000000000000000000000000000006000000000000000000000000000000000000000000000000000000000000000200176ce2c8adb709c81222a360e4e9b63596e44e30cd8c63b2af55bf70842c296",
        "nonce": "0x4",
        "chainId": "0xaa36a7"
      },
      "additionalContracts": [],
      "isFixedGasLimit": false
    }
  ],
  "receipts": [
    {
      "status": "0x1",
      "cumulativeGasUsed": "0xf9e8f1",
      "logs": [
        {
          "address": "0x779877a7b0d9e8603169ddbd7836e478b4624789",
          "topics": [
            "0xddf252ad1be2c89b69c2b068fc378daa952ba7f163c4a11628f55a4df523b3ef",
            "0x00000000000000000000000097c1056664b196641f821fda9049ab8c653dc5c5",
            "0x0000000000000000000000009ddfaca8183c41ad55329bdeed9f6a8d53168b1b"
          ],
          "data": "0x00000000000000000000000000000000000000000000000029a2241af62c0000",
          "blockHash": "0x119c4645edff0397d79d400634d154c0f04cfd1539f779af89ff22f81e30381c",
          "blockNumber": "0x699663",
          "transactionHash": "0xd7feb206dc54ee95113027d4cb4e9f9f91108f133c5aee66f71cc6a44ffc9124",
          "transactionIndex": "0x3f",
          "logIndex": "0x6b",
          "removed": false
        },
        {
          "address": "0x779877a7b0d9e8603169ddbd7836e478b4624789",
          "topics": [
            "0xe19260aff97b920c7df27010903aeb9c8d2be5d310a2c67824cf3f15396e4c16",
            "0x00000000000000000000000097c1056664b196641f821fda9049ab8c653dc5c5",
            "0x0000000000000000000000009ddfaca8183c41ad55329bdeed9f6a8d53168b1b"
          ],
          "data": "0x00000000000000000000000000000000000000000000000029a2241af62c0000000000000000000000000000000000000000000000000000000000000000004000000000000000000000000000000000000000000000000000000000000000200176ce2c8adb709c81222a360e4e9b63596e44e30cd8c63b2af55bf70842c296",
          "blockHash": "0x119c4645edff0397d79d400634d154c0f04cfd1539f779af89ff22f81e30381c",
          "blockNumber": "0x699663",
          "transactionHash": "0xd7feb206dc54ee95113027d4cb4e9f9f91108f133c5aee66f71cc6a44ffc9124",
          "transactionIndex": "0x3f",
          "logIndex": "0x6c",
          "removed": false
        },
        {
          "address": "0x9ddfaca8183c41ad55329bdeed9f6a8d53168b1b",
          "topics": [
            "0x1ced9348ff549fceab2ac57cd3a9de38edaaab274b725ee82c23e8fc8c4eec7a",
            "0x0176ce2c8adb709c81222a360e4e9b63596e44e30cd8c63b2af55bf70842c296"
          ],
          "data": "0x000000000000000000000000000000000000000000000000000000000000000000000000000000000000000000000000000000000000000029a2241af62c0000",
          "blockHash": "0x119c4645edff0397d79d400634d154c0f04cfd1539f779af89ff22f81e30381c",
          "blockNumber": "0x699663",
          "transactionHash": "0xd7feb206dc54ee95113027d4cb4e9f9f91108f133c5aee66f71cc6a44ffc9124",
          "transactionIndex": "0x3f",
          "logIndex": "0x6d",
          "removed": false
        }
      ],
      "logsBloom": "0x00000004000000000000000000000000000000000020000008000000020000000000000000000000000000000000000000000000000000000000000000000000000000000000000000000008000000000000000000000000000020000020000008000000000000000000000000000000000000000000000000000010000040000000000000000000000000010000800000000020000000000000000000000000000000000000000000000000010000000000000000000000000004000000000000000002000000000000000000000000000000000400000100000000000000000010000000000100800000000004000010000000000000000008000000000000",
      "type": "0x2",
      "transactionHash": "0xd7feb206dc54ee95113027d4cb4e9f9f91108f133c5aee66f71cc6a44ffc9124",
      "transactionIndex": "0x3f",
      "blockHash": "0x119c4645edff0397d79d400634d154c0f04cfd1539f779af89ff22f81e30381c",
      "blockNumber": "0x699663",
      "gasUsed": "0xf0e5",
      "effectiveGasPrice": "0x7924c020",
      "from": "0x97c1056664b196641f821fda9049ab8c653dc5c5",
      "to": "0x779877a7b0d9e8603169ddbd7836e478b4624789",
      "contractAddress": null
    }
  ],
  "libraries": [],
  "pending": [],
  "returns": {},
  "timestamp": 1729560895,
  "chain": 11155111,
  "commit": "27664bc"
}